{
    "_format": "hh-sol-artifact-1",
    "contractName": "ToDoList",
    "sourceName": "contracts/ToDoList.sol",
    "abi": [
        {
            "anonymous": false,
            "inputs": [
                {
                    "indexed": false,
                    "internalType": "string",
                    "name": "task",
                    "type": "string"
                },
                {
                    "indexed": false,
                    "internalType": "bool",
                    "name": "status",
                    "type": "bool"
                }
            ],
            "name": "TaskStatus",
            "type": "event"
        },
        {
            "inputs": [
                {
                    "internalType": "uint256",
                    "name": "_index",
                    "type": "uint256"
                }
            ],
            "name": "deleteToDo",
            "outputs": [],
            "stateMutability": "nonpayable",
            "type": "function"
        },
        {
            "inputs": [],
            "name": "getTodo",
            "outputs": [
                {
                    "internalType": "string[]",
                    "name": "",
                    "type": "string[]"
                }
            ],
            "stateMutability": "view",
            "type": "function"
        },
        {
            "inputs": [
                {
                    "internalType": "uint256",
                    "name": "_index",
                    "type": "uint256"
                }
            ],
            "name": "getTodoByIndex",
            "outputs": [
                {
                    "internalType": "string",
                    "name": "",
                    "type": "string"
                }
            ],
            "stateMutability": "nonpayable",
            "type": "function"
        },
        {
            "inputs": [],
            "name": "getTodosLength",
            "outputs": [
                {
                    "internalType": "uint256",
                    "name": "",
                    "type": "uint256"
                }
            ],
            "stateMutability": "view",
            "type": "function"
        },
        {
            "inputs": [
                {
                    "internalType": "string",
                    "name": "_todo",
                    "type": "string"
                }
            ],
            "name": "setTodo",
            "outputs": [],
            "stateMutability": "nonpayable",
            "type": "function"
        },
        {
            "inputs": [
                {
                    "internalType": "uint256",
                    "name": "",
                    "type": "uint256"
                }
            ],
            "name": "todos",
            "outputs": [
                {
                    "internalType": "string",
                    "name": "",
                    "type": "string"
                }
            ],
            "stateMutability": "view",
            "type": "function"
        }
    ],
    "bytecode": "0x608060405234801561001057600080fd5b50610e33806100206000396000f3fe608060405234801561001057600080fd5b50600436106100625760003560e01c8063549fd151146100675780637fa1680a14610083578063b9abac74146100a1578063bc8bc2b4146100bd578063cd6aab58146100ed578063ec209aab1461011d575b600080fd5b610081600480360381019061007c9190610735565b61013b565b005b61008b610273565b60405161009891906108bd565b60405180910390f35b6100bb60048036038101906100b69190610a14565b61034c565b005b6100d760048036038101906100d29190610735565b6103c5565b6040516100e49190610aa7565b60405180910390f35b61010760048036038101906101029190610735565b610471565b6040516101149190610aa7565b60405180910390f35b610125610569565b6040516101329190610ad8565b60405180910390f35b6000805490508110610182576040517f08c379a000000000000000000000000000000000000000000000000000000000815260040161017990610b3f565b60405180910390fd5b7f7c4d8a7ac2b51bcec3f09cdcb028e16bae4669812e6541a64c574f69b38e88c2600082815481106101b7576101b6610b5f565b5b9060005260206000200160016040516101d1929190610c9f565b60405180910390a1600060016101e5610569565b6101ef9190610cfe565b81548110610200576101ff610b5f565b5b906000526020600020016000828154811061021e5761021d610b5f565b5b9060005260206000200190805461023490610bbd565b61023f92919061057b565b50600080548061025257610251610d32565b5b60019003818190600052602060002001600061026e9190610608565b905550565b60606000805480602002602001604051908101604052809291908181526020016000905b828210156103435783829060005260206000200180546102b690610bbd565b80601f01602080910402602001604051908101604052809291908181526020018280546102e290610bbd565b801561032f5780601f106103045761010080835404028352916020019161032f565b820191906000526020600020905b81548152906001019060200180831161031257829003601f168201915b505050505081526020019060010190610297565b50505050905090565b600081908060018154018082558091505060019003906000526020600020016000909190919091509080519060200190610387929190610648565b507f7c4d8a7ac2b51bcec3f09cdcb028e16bae4669812e6541a64c574f69b38e88c28160006040516103ba929190610d61565b60405180910390a150565b600081815481106103d557600080fd5b9060005260206000200160009150905080546103f090610bbd565b80601f016020809104026020016040519081016040528092919081815260200182805461041c90610bbd565b80156104695780601f1061043e57610100808354040283529160200191610469565b820191906000526020600020905b81548152906001019060200180831161044c57829003601f168201915b505050505081565b60606000805490508211156104bb576040517f08c379a00000000000000000000000000000000000000000000000000000000081526004016104b290610ddd565b60405180910390fd5b600082815481106104cf576104ce610b5f565b5b9060005260206000200180546104e490610bbd565b80601f016020809104026020016040519081016040528092919081815260200182805461051090610bbd565b801561055d5780601f106105325761010080835404028352916020019161055d565b820191906000526020600020905b81548152906001019060200180831161054057829003601f168201915b50505050509050919050565b60008060008054905090508091505090565b82805461058790610bbd565b90600052602060002090601f0160209004810192826105a957600085556105f7565b82601f106105ba57805485556105f7565b828001600101855582156105f757600052602060002091601f016020900482015b828111156105f65782548255916001019190600101906105db565b5b50905061060491906106ce565b5090565b50805461061490610bbd565b6000825580601f106106265750610645565b601f01602090049060005260206000209081019061064491906106ce565b5b50565b82805461065490610bbd565b90600052602060002090601f01602090048101928261067657600085556106bd565b82601f1061068f57805160ff19168380011785556106bd565b828001600101855582156106bd579182015b828111156106bc5782518255916020019190600101906106a1565b5b5090506106ca91906106ce565b5090565b5b808211156106e75760008160009055506001016106cf565b5090565b6000604051905090565b600080fd5b600080fd5b6000819050919050565b610712816106ff565b811461071d57600080fd5b50565b60008135905061072f81610709565b92915050565b60006020828403121561074b5761074a6106f5565b5b600061075984828501610720565b91505092915050565b600081519050919050565b600082825260208201905092915050565b6000819050602082019050919050565b600081519050919050565b600082825260208201905092915050565b60005b838110156107c85780820151818401526020810190506107ad565b838111156107d7576000848401525b50505050565b6000601f19601f8301169050919050565b60006107f98261078e565b6108038185610799565b93506108138185602086016107aa565b61081c816107dd565b840191505092915050565b600061083383836107ee565b905092915050565b6000602082019050919050565b600061085382610762565b61085d818561076d565b93508360208202850161086f8561077e565b8060005b858110156108ab578484038952815161088c8582610827565b94506108978361083b565b925060208a01995050600181019050610873565b50829750879550505050505092915050565b600060208201905081810360008301526108d78184610848565b905092915050565b600080fd5b600080fd5b7f4e487b7100000000000000000000000000000000000000000000000000000000600052604160045260246000fd5b610921826107dd565b810181811067ffffffffffffffff821117156109405761093f6108e9565b5b80604052505050565b60006109536106eb565b905061095f8282610918565b919050565b600067ffffffffffffffff82111561097f5761097e6108e9565b5b610988826107dd565b9050602081019050919050565b82818337600083830152505050565b60006109b76109b284610964565b610949565b9050828152602081018484840111156109d3576109d26108e4565b5b6109de848285610995565b509392505050565b600082601f8301126109fb576109fa6108df565b5b8135610a0b8482602086016109a4565b91505092915050565b600060208284031215610a2a57610a296106f5565b5b600082013567ffffffffffffffff811115610a4857610a476106fa565b5b610a54848285016109e6565b91505092915050565b600082825260208201905092915050565b6000610a798261078e565b610a838185610a5d565b9350610a938185602086016107aa565b610a9c816107dd565b840191505092915050565b60006020820190508181036000830152610ac18184610a6e565b905092915050565b610ad2816106ff565b82525050565b6000602082019050610aed6000830184610ac9565b92915050565b7f5468697320746f646f20696e64657820646f6573206e6f742065786973742e00600082015250565b6000610b29601f83610a5d565b9150610b3482610af3565b602082019050919050565b60006020820190508181036000830152610b5881610b1c565b9050919050565b7f4e487b7100000000000000000000000000000000000000000000000000000000600052603260045260246000fd5b7f4e487b7100000000000000000000000000000000000000000000000000000000600052602260045260246000fd5b60006002820490506001821680610bd557607f821691505b60208210811415610be957610be8610b8e565b5b50919050565b60008190508160005260206000209050919050565b60008154610c1181610bbd565b610c1b8186610a5d565b94506001821660008114610c365760018114610c4857610c7b565b60ff1983168652602086019350610c7b565b610c5185610bef565b60005b83811015610c7357815481890152600182019150602081019050610c54565b808801955050505b50505092915050565b60008115159050919050565b610c9981610c84565b82525050565b60006040820190508181036000830152610cb98185610c04565b9050610cc86020830184610c90565b9392505050565b7f4e487b7100000000000000000000000000000000000000000000000000000000600052601160045260246000fd5b6000610d09826106ff565b9150610d14836106ff565b925082821015610d2757610d26610ccf565b5b828203905092915050565b7f4e487b7100000000000000000000000000000000000000000000000000000000600052603160045260246000fd5b60006040820190508181036000830152610d7b8185610a6e565b9050610d8a6020830184610c90565b9392505050565b7f696e76616c696420696e64657800000000000000000000000000000000000000600082015250565b6000610dc7600d83610a5d565b9150610dd282610d91565b602082019050919050565b60006020820190508181036000830152610df681610dba565b905091905056fea264697066735822122079e17a90e9a44579e76ee4665fc965d5e88720b51e730b57dc50713d6fbd0fc864736f6c63430008080033",
    "linkReferences": {},
    "deployedLinkReferences": {}
}